:100000000C9415020C945C020C945C020C945C023F
:100010000C945C020C945C020C945C020C945C02E8
:100020000C945C020C945C020C94AA1B0C947D1C36
:100030000C947C160C945C020C945C020C945C0294
:100040000C945C020C945C020C945C020C945C02B8
:100050000C945C020C94E2160C945C020C945C020E
:100060000C945C020C945C020C945C020C945C0298
:100070000C945C020C945C020C945C020C945C0288
:100080000C945C020C945C020C945C020C945C0278
:100090000C945C020C945C020C945C020C945C0268
:1000A0000C945C020C945C020C945C02165C1E00C6
:1000B0001F0020002100220023002400250026002C
:1000C00027002D002E0035002A002B000000140010
:1000D0001A000800150017001C0018000C00120080
:1000E00013002F0030003100890F000004001600BB
:1000F000070009000A000B000D000E000F0033007E
:10010000340028000000E10000001D001B00060074
:100110001900050011001000360037003800E50016
:100120005200175CE000E2000000E300E65C000023
:10013000025100002C000000E700E60050005100D2
:100140004F00010001000100010001000100010059
:100150000100010001000100010001000100010097
:100160000100000001000100010001000100010088
:100170000100010001000100010001000100010077
:100180000000010001000100010001000100010068
:100190000100010001000100010000000100000059
:1001A0000100010001000100010001000100010047
:1001B0000100010001000100010001000100000038
:1001C00001001050000001000000010000000100CB
:1001D000010001000100010001003A003B003C0069
:1001E0003D003E003F00400041004200430001004E
:1001F000010001004C0001000000010001004D0061
:100200000100010001004B0001000100AE00BC0034
:10021000BB00490001000000010001004E00090977
:1002200001005000510052004F0001000100010088
:1002300000000100000001000100010001004A006F
:1002400001007F00810080000100010001000351D6
:100250000100010000000100010000000100000099
:100260000100000001000100010001000100005C2C
:100270000100010001000100010001000100010076
:100280000100010001000100010001000100000067
:100290000100010001000100010001000100010056
:1002A0000100010001000100010001000000010047
:1002B0000100010001000100010001000100010036
:1002C0000100010001000000010000000100010028
:1002D0000100010001000100010001000100010016
:1002E0000100010001000100010000000100010007
:1002F00000000100000001000000010001000100F9
:10030000010001000403300000000A0344005A0009
:1003100036003000000010034B004200440046004D
:1003200061006E00730000000403090409023B0031
:10033000020100A0FA0904000001030101000921E3
:10034000110100012240000705810308000A090489
:1003500001000103000000092111010001227100C8
:100360000705820320000A1201100100000008EDB9
:10037000FE602201000102030105010980A101853F
:10038000031601002603001A81002A8300751095C8
:10039000018100C0050C0901A10185041601002698
:1003A0009C021A01002A9C02751095018100C0056B
:1003B000010906A1018505050719E029E7150025B2
:1003C0000195087501810205081901290595057532
:1003D0000191029501750391010507190029EF1597
:1003E00000250195F075018102C005010906A101F2
:1003F000050719E029E71500250195087501810217
:1004000095017508810105081901290595057501F2
:1004100091029501750391010507190029FF150047
:1004200026FF00950675088100C011241FBECFEF7E
:10043000DAE0DEBFCDBF04B603FE27C08091C6045C
:100440009091C704A091C804B091C9048730904B23
:10045000A740B04BD1F41092C6041092C70410927A
:10046000C8041092C90414BE84B7877F84BF0FB636
:10047000F894A89580916000886180936000109244
:1004800060000FBEE0E0F8E3099513E0A0E0B1E002
:10049000E2E8FDE302C005900D92A237B107D9F75B
:1004A00024E0A2E7B3E001C01D92A63CB207E1F749
:1004B0000E94D8180C94701E0C9400000C94BE0678
:1004C000229A2A9A08950E94BD060C94600281FF28
:1004D00003C02A980C9499022A9AFCCF80E00C94CD
:1004E000000981E0089581E008950C9471020E9452
:1004F00022078FE39CE90197F1F700C000000E94FA
:10050000220780E00E94EE0780FF04C00E943015A1
:100510000C94061708950E9477020E9436158111E7
:1005200002C00E9499150E94EA080C9463020C9480
:100530005E0208950C94670208950E94F80E0E94CE
:100540009C022FEF84E39CE0215080409040E1F733
:1005500000C000000C940617FF920F931F93CF93D7
:10056000DF938C01FC01C081D1818091B0038111A6
:1005700050C08281882309F447C0CE010E940A142A
:10058000F82E682FCE010E94B613BE018F2D0E9457
:100590005504EC01B8010E947502882309F49CC03F
:1005A000B801CE010E944E09882309F495C0B80114
:1005B000CE010E94AA09882309F48EC0C73DFCE53C
:1005C000DF0709F41AC108F048C0C531ECE5DE07C1
:1005D00028F5C230FCE5DF0708F09DC0C1158CE5A9
:1005E000D80709F474C0C130DC4509F47CC081E04F
:1005F0008093770380937803C801DF91CF911F9197
:100600000F91FF900C947302CE010E94E213F82E1A
:10061000BCCFCE010E940A14BE01B9CFC631DC4561
:1006200031F70E94F114C82F0E94F1148878CA7A19
:100630008111C0E0F8019281992309F428C191E069
:10064000C11101C090E09093720389E2C11185E36A
:100650000E947A140E94BE143FC0CC3D8CE5D8079E
:1006600009F44BC028F5C83DFCE5DF0709F4ECC0F0
:10067000C93DDC4509F0BBCFF80182818111E8C09A
:1006800080917803811101C1809175039091760367
:100690000E94B816883C910508F0F7C080E20E94DD
:1006A0009D0C88E20E943C0B88E20E943F0C14C023
:1006B000CD3DECE5DE0749F1CE3DDC4509F097CFB5
:1006C000F8018281882341F00E94991505C0F80144
:1006D000828181110E949D0280E0DF91CF911F9164
:1006E0000F91FF900895F80182818823A9F38091EA
:1006F0004804816080934804EFCFF8018281882309
:1007000059F380E00E947419E7CFF80182818823B1
:1007100019F382E0F7CFF8018281882309F46CCFC6
:100720000E943615811102C00E9499150E94491538
:1007300090E09093B8048093B704FE01E350FC4529
:100740008091B7048160E231F10538F4EE58F14E42
:100750000C94281E8091B70482608093B704809126
:10076000B7040E944D150E94F80EB6CF8091B704D1
:100770008460F3CF8091B7048860EFCF8091B70495
:100780008061EBCF8091B7048062E7CF8091B7049E
:100790008064E3CF8091B7048068DFCF8091B70495
:1007A0008C60DBCF8091B7048E7FD7CF8091B70468
:1007B0008D7FD3CF8091B7048B7FCFCF8091B7044B
:1007C000877FCBCF8091B7048F7EC7CF8091B7044E
:1007D0008F7DC3CF8091B7048F7BBFCF8091B7044B
:1007E0008F77BBCF8091B704837FB7CF9091B70449
:1007F000892F97FB87F98058B0CFF8018281882331
:1008000061F0109277030E94AC169093740380936A
:10081000730382E00E94960C5FCF80917703811171
:100820000FC080917303909174030E94B816883CA6
:10083000910530F486E20E943C0B86E20E943F0C58
:1008400082E00E949D0C48CFF8018281882351F0FC
:10085000109278030E94AC169093760380937503F0
:1008600080E2D8CF8091780381110FC08091750309
:10087000909176030E94B816883C910530F487E287
:100880000E943C0B87E20E943F0C80E2DACF80910D
:100890007203811104C089E20E948114DBCE85E3DA
:1008A000FBCF90E080E008950895972F70E02FE04F
:1008B000929F600D711D1124FB019BE4899FE00D47
:1008C000F11D1124EE0FFF1FE455FF4F8591949108
:1008D0000895FC01EE0FFF1FEC5FFC4F8591949192
:1008E0000895CF93DF930E9455040E941F06EC01E8
:1008F000811520E5920708F042C0811530E4930786
:1009000008F00FC1883E910528F5803E910508F05A
:100910009BC0883A910588F4853A910508F08AC011
:100920008130910509F490C0009709F48DC00497B7
:1009300008F08AC0D0E0C0E087C08F3B910508F482
:1009400087C0805C9109C03CD105A0F30E94690476
:10095000EC017AC08115904250F4C11581E0D807AE
:1009600008F072C0C03FD10528F3D0656DC0C11535
:1009700090E3D90708F0CBC0CE019F70E7CF811577
:1009800025E5920758F5811534E5930708F0F8C07E
:10099000811542E5940750F4C11581E5D80708F4A4
:1009A000C3C0DC2FCC27C16FD06A4EC0982F96955C
:1009B00096959E0123703327C115D34508F0D1C009
:1009C000C1E0D0E002C0CC0FDD1F2A95E2F720E2A3
:1009D000929FC0011124C82BD92BC1C0C11589E534
:1009E000D80780F4C11598E5D90708F0CEC0C11525
:1009F00026E5D20708F09ECFDC2FCC27CC27DF716D
:100A0000D06222C0CE01C1153AE5D30708F4C2C0B6
:100A100090568115904208F08DCF8D2F8F710E94D6
:100A20009A0690E0982F882788279F719C012C2B8D
:100A3000E901E6CF853A910509F4B6C0863A9105F9
:100A400009F0B5C0C2E8D0E4CE01DF91CF9108959E
:100A5000883A910509F4AEC0893A910509F4ADC010
:100A60008A3A910509F4ACC08B3A910509F4ABC000
:100A70008C3A910509F4AAC08B3B910509F4A9C0F1
:100A80008C3B910509F4A8C08D3A910509F4A7C0E3
:100A9000803B910509F4A6C08E3A910509F4A5C0E2
:100AA0008F3A910509F4A4C0813B910509F4A3C0D4
:100AB000823B910509F4A2C0833B910509F4A1C0D2
:100AC000843B910509F4A0C0853B910509F49FC0C2
:100AD000863B910509F49EC0873B910509F49DC0B2
:100AE000883B910509F49CC0893B910509F49BC0A2
:100AF0008D3B910509F49AC08E3B910509F499C08C
:100B00008A3B910509F498C0C0E0D4E49DCFCE01A2
:100B10009927D3FF03C0EC01D86C96CFEC01D06CC1
:100B200093CFDF70D06A90CFCE01E4E096958795A1
:100B3000EA95E1F783702C2F26952695237090E295
:100B4000299F90011124382B8C2F8370C1E0D0E0B5
:100B500002C0CC0FDD1F8A95E2F7C22BD32BDC68D5
:100B600073CFC1E0D0E002C0CC0FDD1F2A95E2F7C1
:100B700030E2939FC0011124C82BD92BDA6864CFCF
:100B8000D82FCC27C46FD06A5FCFDC2FCC27C06FA3
:100B9000D06A5ACF34E0969587953A95E1F78F70F1
:100BA000CF70C06ED82FBECFC1E8D0E44DCFC3E820
:100BB000D0E44ACFC2EED4E447CFC9EED4E444CF68
:100BC000CAEED4E441CFC5EBD4E43ECFC6EBD4E4C7
:100BD0003BCFC3EBD4E438CFC4EBD4E435CFC7EB81
:100BE000D4E432CFCCECD4E42FCFCDECD4E42CCF72
:100BF000C3E8D5E429CFCAE8D5E426CFC2E9D5E4D5
:100C000023CFC4E9D5E420CFC1E2D6E41DCFC3E2AF
:100C1000D6E41ACFC4E2D6E417CFC5E2D6E414CFA7
:100C2000C6E2D6E411CFC7E2D6E40ECFCFE6D4E4D5
:100C30000BCFC0E7D4E408CFCAE2D6E405CF8238B0
:100C4000910549F1B0F48133910509F462C048F48B
:100C50008932910509F456C08A32910509F460C0C1
:100C600008958533910509F446C08933910599F0BB
:100C70000895833E910531F138F4803E910591F05D
:100C8000823E9105B1F00895863E910521F1873E9F
:100C9000910551F108952091B7042370D9F080EEA9
:100CA00090E008952091B70420FF14C089E390E0FC
:100CB00008952091B70422FF0DC024FD09C083EEE2
:100CC00090E008952091B70422FD31C024FF02C0B6
:100CD00090E080E008952091B70423FFFBCF24FD2E
:100CE000F7CF87EE90E008952091B70423FFEECF71
:100CF00086EE90E008952091B70425FFEBCF89E2BE
:100D000090E008952091B70425FFE4CF85E390E0BB
:100D100008952091B70426FFDDCF8AE290E0089580
:100D20002091B70426FFD6CF81E390E0089582EEAC
:100D300090E008959091B70492FF06C0282F287183
:100D4000283069F4877F846093FF06C0282F2871BC
:100D5000283161F4877E846194FD877E0895282F71
:100D60002471243089F78B7F8860EECF282F24717F
:100D7000243191F78B7E8861EFCF08950895CF934A
:100D8000DF93ACE6B3E021E733E061E070E09D91F2
:100D9000E92FE295EF70F0E041A19F70EB0102C0F6
:100DA000CC0FDD1F9A95E2F7CE018095842381A3B5
:100DB0002A173B0761F7ADE5B3E061E070E08D9184
:100DC000E82FE295EF70F0E041A18F709B0101C028
:100DD000220F8A95EAF7922F9095942391A382A1EE
:100DE000822B82A3D3E0AC36BD0749F7109284036F
:100DF0001092830310927A03109279031092860363
:100E00001092850310927C0310927B03109288034A
:100E10001092870310927E0310927D0310928A0332
:100E2000109289031092800310927F0310928C031A
:100E300010928B031092820310928103DF91CF9165
:100E40000C948B024F925F927F928F929F92AF92FF
:100E5000BF92CF92DF92EF92FF920F931F93CF93A7
:100E6000DF9399E7492E93E0592E0CE613E0EE2428
:100E7000E394F12C88248394E201A990B9902E0187
:100E8000DE011E921E92F80181918F01E82FE295FA
:100E9000EF70F0E091A18F70A70101C0440F8A9517
:100EA000EAF7892F842B81A382A1942E9094892123
:100EB00082A380EA8A95F1F78DE5C82E83E0D82ECB
:100EC00030E020E0E60179906E01872D82958F70E9
:100ED00090E0EC0188A16D917C91119790E0D72D65
:100EE000DF7002C095958795DA95E2F780FD73C0B3
:100EF000C701022E02C0880F991F0A94E2F7682BDF
:100F0000792B11967C936E932F5F3F4F2F303105D5
:100F1000C9F681A1982291A282A1482B42A38D916A
:100F20009C91A816B90641F080928D030E94AC16E0
:100F300090938F0380938E03E3E84E16E3E05E0602
:100F400009F09ACF80918D03882391F180918E03CF
:100F500090918F030E94B816069750F18091790303
:100F600090917A03909384038093830380917B0311
:100F700090917C03909386038093850380917D03F9
:100F800090917E03909388038093870380917F03E1
:100F90009091800390938A038093890380918103C9
:100FA0009091820390938C0380938B0310928D0316
:100FB0000E94970281E0DF91CF911F910F91FF90E6
:100FC000EF90DF90CF90BF90AF909F908F907F90E9
:100FD0005F904F90089590E080E091CFE82FF0E08F
:100FE000EE0FFF1FED57FC4F80819181089508950A
:100FF0000895CF93DF93C0E08C2F90E020916D0493
:101000002150330B821793071CF0DF91CF91089585
:10101000880F991FFC01E359FB4FD1818D2F0E944E
:101020003C0B8D2F0E943F0C8FE39CE90197F1F759
:1010300000C00000CF5FE0CF0F931F93CF938C01D0
:10104000F801C1918F01C11104C0CF911F910F917F
:101050000895C73448F4C134C8F4C033C9F080F3EC
:10106000CA3370F7C35105C09FE99C0FCD55963028
:1010700038F78C2F0E943C0B8C2F0E943F0C8FE383
:101080009CE90197F1F700C00000DACFCD53F1CF12
:10109000C7E2EFCF1F93CF93DF93EC018091AE04B3
:1010A00080FD05C081E0DF91CF911F91089590915F
:1010B0006D04903248F0CC32D10531F09E012852B7
:1010C000310923303105D8F4FB018281882351F3A3
:1010D000E92FF0E0EE0FFF1FE359FB4FD283C183EE
:1010E00011E0190F10936D04CA32D10551F412307A
:1010F00020F0915090936D04D6CF90936D0480E0D2
:10110000D2CFCE018897029718F0CC32D10551F694
:10111000111108C0A997A1F48091AE048E7F80932D
:10112000AE04EDCF8AE20E943C0B8AE20E943F0CA3
:101130008FE39CE90197F1F700C000001150E8CF60
:101140000E94040970916D04C0E0F4E0CF9F90010B
:101150001124F901E754FD4FA081B1811097A1F549
:101160000E94F9070E943B09D7CF4D55550B7617C2
:1011700078F1880F991FFC01E359FB4F818192811F
:101180004817590729F56F5F862F90E0FD01E80F9A
:10119000F91F40814111E9CF880F991FFC01E359E4
:1011A000FB4F818192818832910581F427543D4F14
:1011B000F9018281938102960E941C080E943B09DA
:1011C0008C2F0E94F807A8CF60E0DECF8C9771F3D8
:1011D000CF5FBBCF8CE090E00E942E1E90E0B0E08D
:1011E000A0E08093AF049093B004A093B104B093B7
:1011F000B20408956091AF048CE090E00C943C1E22
:101200008093AF040C94FA080E94F1148093900329
:101210000E9404158091AF04813089F0882359F031
:101220008230E9F0843011F18FE39CE90197F1F706
:1012300000C00000089582EE0E943C0BF5CF80EEC6
:101240000E943C0B81EE0E943C0B88E10E948E0CB8
:1012500081EE0E943F0C80EE0E943F0CE5CF82EEB3
:101260000E943C0B87E50E948E0CDECF86EE0E942A
:101270008E0C88E1F8CF8091AF04813059F088233B
:1012800011F0823019F482EE0E943F0C809190039D
:101290000C9401158CE20E948E0CF8CF0F931F93D3
:1012A000CF93DF93EC018B01FB018281882371F0E6
:1012B000C33EFCE5DF0719F188F4C13EECE5DE072B
:1012C000C9F081E0C23EFCE5DF0789F0B801CE013C
:1012D000DF91CF911F910F910C944A08C43E8CE589
:1012E000D80779F084E0C53EECE5DE0779F7809316
:1012F000AF0402C01092AF040E94FA08E7CF82E068
:10130000F6CF83E0F4CF089580919E03811121C030
:101310000E94830981E080939E030E94AC16909303
:101320009D0380939C03109291031092930310925B
:1013300092031092950310929403109297031092C7
:101340009603109299031092980310929B031092A7
:101350009A0308951F93CF93DF93EC01FB01128151
:10136000111106C011E0812FDF91CF911F910895D7
:1013700080919E03882319F180919C0390919D0395
:101380000E94B8168C32914068F7CE0190568115B4
:1013900020E2920720F0905E8115904108F4DD274D
:1013A00080919103E82FF0E0EE0FFF1FEE56FC4F07
:1013B000D183C0838F5F8093910310E0D4CFC73176
:1013C000DC4581F60E948409CECF9093A4038093DC
:1013D000A3030895E091A303F091A403309721F0B3
:1013E0000190F081E02D099480E00895E091A3033D
:1013F000F091A403309799F020910C01222359F029
:101400002091B70427FF07C0DC012C9111962C9383
:10141000119725E02C930280F381E02D0994089523
:101420002091A1033091A2032817390771F09093FE
:10143000A2038093A103E091A303F091A40330974A
:1014400021F00680F781E02D0994089520919F03F3
:101450003091A0032817390771F09093A00380936F
:101460009F03E091A303F091A403309721F000843F
:10147000F185E02D0994089585B7806885BF85B70B
:10148000806885BF089508950E943C0A0C94430A21
:1014900081E008950E94A3160E94BF060C942A17AB
:1014A0005F926F927F928F929F92AF92BF92CF92F4
:1014B000DF92EF92FF920F931F93CF93DF93CDB7FD
:1014C000DEB72A970FB6F894DEBF0FBECDBF0E94DD
:1014D00022070E94480A882309F478C096EAA92EB8
:1014E00093E0B92E10E000E088248394912C502ED4
:1014F000802F0E94EE077C01F501C190D1905F0121
:10150000C816D90609F45CC08091480481FD0E9488
:10151000F70790E080E0CE24DF243401082E02C0DB
:10152000660C771C0A94E2F7960126213721232BBB
:1015300009F441C08E835F82E620F72081E0EF2826
:1015400009F480E088870E94AC168160782F9A8722
:1015500089874E815F8168858A850E940D0B000F07
:10156000111FF801EA55FC4F808191816826792688
:10157000718260820E94EA099091A5038917B9F1EE
:101580000E94EA098093A5032A960FB6F894DEBF5D
:101590000FBECDBFDF91CF911F910F91FF90EF90C4
:1015A000DF90CF90BF90AF909F908F907F906F9083
:1015B0005F900C949A0201968F30910509F0ADCF9F
:1015C0000F5F1F4F0530110509F091CF8FEF898311
:1015D0008A831B820E94AC168160782F9D838C8346
:1015E00049815A816B818D810E940D0BC3CF2A9650
:1015F0000FB6F894DEBF0FBECDBFDF91CF911F9124
:101600000F91FF90EF90DF90CF90BF90AF909F90A1
:101610008F907F906F905F900895CF93DF93CDB7B9
:10162000DEB72B970FB6F894DEBF0FBECDBF4F834A
:10163000588769877A878B871E821D8285E0FE0125
:101640003796DE01119601900D928A95E1F7498156
:101650005A816B817C818D819E812B960FB6F89487
:10166000DEBF0FBECDBFDF91CF910C949611FC0170
:10167000808191810C944C14882309F4FFC0823836
:10168000B9F40E94EA0981FDF9C089E30E947A1445
:101690000E94BE142FEF81EE94E0215080409040D4
:1016A000E1F700C0000089E30E9481140C94BE148D
:1016B0008338A1F40E94EA0980FDE0C083E50E941E
:1016C0007A140E94BE142FEF81EE94E021508040E6
:1016D0009040E1F700C0000083E5E6CF8438A1F434
:1016E0000E94EA0982FDCAC087E40E947A140E941F
:1016F000BE142FEF81EE94E0215080409040E1F73E
:1017000000C0000087E4D0CF9CEF980F913A18F406
:101710000E947A14CBCF90E2980F983050F48770E3
:1017200091E001C0990F8A95EAF7892F0E94F4147D
:10173000BDCF9BE5980F933070F4853A31F0863A2F
:1017400039F083E890E00C94100A81E890E0FBCF38
:1017500082E890E0F8CF98E5980F973108F08EC0B6
:10176000883A09F446C0893A09F446C08A3A09F42D
:1017700046C08B3A09F446C08C3A09F446C08B3B0C
:1017800009F446C08C3B09F446C08D3A09F446C0C2
:10179000803B09F446C08E3A09F446C08F3A09F4FA
:1017A00046C0813B09F446C0823B09F446C0833BF6
:1017B00009F446C0843B09F446C0853B09F446C0A1
:1017C000863B09F446C0873B09F446C0883B09F4D0
:1017D00046C0893B09F446C08D3B09F446C08E3BA8
:1017E00009F446C08A3B09F446C090E080E00C94BE
:1017F000260A82EE90E0FBCF89EE90E0F8CF8AEEE9
:1018000090E0F5CF85EB90E0F2CF86EB90E0EFCF64
:1018100083EB90E0ECCF84EB90E0E9CF87EB90E0B6
:10182000E6CF8CEC90E0E3CF8DEC90E0E0CF83E866
:1018300091E0DDCF8AE891E0DACF82E991E0D7CF7D
:1018400084E991E0D4CF81E292E0D1CF83E292E0CB
:10185000CECF84E292E0CBCF85E292E0C8CF86E2A1
:1018600092E0C5CF87E292E0C2CF8FE690E0BFCF93
:1018700080E790E0BCCF8AE292E0B9CF0895882358
:1018800009F44BC0823871F40E94EA0981FF45C017
:1018900089E30E947A140E94BE1489E30E94811495
:1018A0000C94BE14833859F40E94EA0980FF35C0B5
:1018B00083E50E947A140E94BE1483E5EFCF84383A
:1018C00059F40E94EA0982FF28C087E40E947A1432
:1018D0000E94BE1487E4E2CF9CEF980F913AF0F299
:1018E00090E2980F983050F4877091E001C0990F02
:1018F0008A95EAF7892F0E94FA14D2CF9BE5980FB8
:10190000933020F490E080E00C94100A885A8731DC
:1019100020F490E080E00C94260A0895CF93C82F1D
:101920000E943C0B8C2FCF910C943F0C882321F00C
:101930000E94F4140C94BE140895882321F00E9490
:10194000FA140C94BE1408958F929F92AF92BF9296
:10195000CF92DF92EF92FF920F931F93CF93DF937B
:101960007C01D62FC72FFC01058102950F701281D3
:1019700011110E9414150E94B714C82E882371F00B
:101980001123B1F080E28D0F883090F082E00E9448
:10199000A1140E94B71491E0C82EC926DC2ED2945F
:1019A0009FE0D922ED2DF0E0EC57F14E0C94281E6B
:1019B000C12CF4CF0C2F0F70C07F11F00295007F67
:1019C0001123A9F0002359F080E28D0F883010F028
:1019D000D11109C0802F0E94F4140E94BE148D2FD3
:1019E0000E943C0B14C0802F0E940715F6CF8D2F4C
:1019F0000E943F0C002359F080E28D0F883010F0D8
:101A0000D11133C0802F0E94FA140E94BE1498E0B6
:101A1000D91639F0D91648F086EF8D0D8F708230C7
:101A200020F40E94EA090E949A02CC2009F497C18E
:101A30000E94941480FD93C1F70112820E948E14BB
:101A40000E941A13C7010E94BC0E0E948E14DF91DF
:101A5000CF911F910F91FF90EF90DF90CF90BF90AB
:101A6000AF909F908F900C943B13802F0E940D1588
:101A7000CCCFFC2FFF70BF2EC07FC03219F0B294C4
:101A800080EFB822DD2369F0D13049F1112391F1C3
:101A9000002351F1F701858180FFA1CF8F708583ED
:101AA00023C0112381F0011106C00E942D158B293E
:101AB0000E94960CACCF0130C1F70E942D158B29E6
:101AC0000E942715A4CF011106C00E942A158B2D54
:101AD0000E949D0C9CCF013009F499CFF6CF1123C1
:101AE00029F0063008F093CF8B2DE2CF053008F0B7
:101AF0008ECFEDCF002359F38D2F0E943F0C87CF5F
:101B00008C2F86958695837069F0813009F07FCFA0
:101B10008D2F9C2F9370111102C090E080E00E94E5
:101B2000260A75CF8D2F9C2F9370111102C090E063
:101B300080E00E94100A6BCF8C2F837009F047C0A1
:101B4000111165CF2D2F229526952770220F220F78
:101B50006D2F6F70862E912CB12CA12C022E04C0FB
:101B6000880C991CAA1CBB1C0A94D2F760E070E098
:101B7000CB01D4FF0FC06FE070E080E090E004C0C4
:101B8000660F771F881F991F2A95D2F76095709569
:101B900080959095C695C695C370C23051F080F47B
:101BA000682979298A299B29C13071F00E94CC12B9
:101BB0002ECF682979298A299B290E94DE1227CFF6
:101BC0000E94CC12C501B4010E94BA1220CF8695A2
:101BD000112311F08C2F8170882309F418CF2D2F39
:101BE000229526952770220F220F6D2F6F70862E5B
:101BF000912CB12CA12C022E04C0880C991CAA1C7B
:101C0000BB1C0A94D2F760E070E0CB01D4FF0FC098
:101C10006FE070E080E090E004C0660F771F881FDF
:101C2000991F2A95D2F76095709580959095C695E5
:101C3000C695C370C23051F080F4682979298A2989
:101C40009B29C13071F00E949113E1CE6829792956
:101C50008A299B290E94A313DACE0E949113C50101
:101C6000B4010E947F13D3CEE0E2ED0FE53108F01E
:101C70004DC0F0E0EC56F14E0C94281EDF708C2F16
:101C80008F71112321F00E941A138D2F11CF0E9402
:101C90003B138D2F1DCF112341F0053008F0B7CE37
:101CA0008C2F8F710E945E13B2CE063008F0AFCE3B
:101CB000F7CF8C2F8F71112339F00E941A13A7CE02
:101CC0008C2F8F711123C9F30E943B13A0CE1123D7
:101CD00029F08C2F8F710E94051399CE0E9400135A
:101CE00096CE112349F0CF718C2F0E941A1363E016
:101CF0008C2F0E9498148BCE81E00E94A114023098
:101D000008F485CE82E00E94A11481CE112329F02F
:101D1000011165CE8C2F8F71D0CF002369F0D9339C
:101D200009F0EACEFFEF27EE83E0F150204080403B
:101D3000E1F700C00000E0CE8C2F8F71C5CF4C2F93
:101D40004F706D2FC7010E9451040E9430125FCE68
:101D50004C2F4F706D2FC7010E94540458CEDF9155
:101D6000CF911F910F91FF90EF90DF90CF90BF9098
:101D7000AF909F908F9008950F931F93CF93DF9311
:101D8000EC018B819C81892B29F0888199818923A1
:101D90008F3F29F4DF91CF911F910F910895CE01CC
:101DA0000E94AC028823B1F3688179818A810E9404
:101DB00056148C010E94B5130E94B712B801CE01CF
:101DC000DF91CF911F910F910C94A40C0E941415D8
:101DD0000E9424150E94BE1490E080E00E94100A28
:101DE00090E080E00C94260A0E9488140C94E60E81
:101DF0000E9404150C94F40E0E944C14E92FE295F5
:101E0000EF70E250EE3070F4F0E0E755F14E0C94D4
:101E1000281E803F19F020F4803E20F481E00895D0
:101E2000843FE1F380E00895803EC0F3813FD1F725
:101E3000F5CF93FB882780F90895CF93DF9300D0E7
:101E400000D00F92CDB7DEB70F900F900F900F908C
:101E50000F90DF91CF910895CF93DF9300D000D002
:101E600000D0CDB7DEB726960FB6F894DEBF0FBE12
:101E7000CDBFDF91CF9108951F93CF93DF93C09192
:101E8000B10316E08091B2038C1304C0DF91CF91AF
:101E90001F910895D0E01C9FF0011D9FF00D1124AB
:101EA000ED54FC4F40815181628173818481958121
:101EB0000E942C0F2196C770E5CF4091E30350910B
:101EC000E4036091E5037091E6038091E70390914C
:101ED000E8030C942C0F1F93CF93DF938091E803BA
:101EE000807FC1F48091E5038823A1F08091B10344
:101EF000C091B2036091E3037091E4034091E60363
:101F00005091E703D62FD723DA01A095B09516E0BC
:101F1000C81304C0DF91CF911F91089590E041153F
:101F2000510511F0DF3F31F401968770F1CF2A0F90
:101F30003B1F17C0189FF001199FF00D1124ED549D
:101F4000FC4F21812713F0CF20812613EDCF228172
:101F50002111EACF238134812417350740F3241B54
:101F6000350B283C310500F72091E8032F702061E4
:101F70002093E80326E0289FF001299FF00D11240B
:101F8000E854FC4F80818F708061808383EE93E002
:101F90000E94BC0EDF91CF911F910C943C0FBF9219
:101FA000CF92DF92EF92FF920F931F93CF93DF9325
:101FB000CDB7DEB761970FB6F894DEBF0FBECDBFC9
:101FC0008C0185E0F801DE011D9601900D928A9545
:101FD000E1F7D8014C9111965C9111971296EC9013
:101FE00012978091E6039091E703009709F47FC16F
:101FF0002091E3033091E403622F63236F3F09F4E0
:1020000076C11396CD90DC90B090E503BB2009F427
:1020100011C1C816D906D0F1F601E81BF90BCF01A2
:10202000FF24F394883C910508F0F12C8091E8039B
:10203000982F907FFF2009F4B8C091117FC0FE2C2B
:10204000351329C0241327C0E11025C08F7080618B
:102050008093E8030E945D0F83EE93E00E94BC0E24
:102060008091E803D80115968C938F2D61960FB659
:10207000F894DEBF0FBECDBFDF91CF911F910F91BE
:10208000FF90EF90DF90CF90BF900895809590954E
:102090008C0D9D1DC5CFCD2829F0852F84238F3F22
:1020A00009F041C180E0B82FB170DB2E80FF3CC049
:1020B0008091B1032091B20336E0821315C04D87A1
:1020C0005E878D859E850E944C14292F22952F7046
:1020D0002230F0F0243018F59F70F1F0F80195816E
:1020E000907FD1F4D12C1EC090E0389FF001399F31
:1020F000F00D1124ED54FC4F6181651306C0608121
:10210000641303C06281E6120FC001968770D5CFB9
:102110009F7011F0882331F3805E883018F3C80176
:102120000E94BC0EFD2CA1CFEE2009F49ECF809121
:10213000E80381608093E803F12C97CF351306C044
:10214000241304C0D801EE2009F49AC04D875E879D
:102150008D859E850E94FC0E882319F1EE2009F1E1
:102160008091E803803270F02091E3033091E40322
:1021700038872F831986DB86CA868C87CE0107961F
:102180000E94BC0E86E0F801A3EEB3E001900D9230
:102190008A95E1F70E946B0F0E945D0FFF24F39474
:1021A00064CFC8010E94BC0EF9CF911113C07C2DE1
:1021B000D98AC88A6E2D89890E941D0F83EE93E00B
:1021C0000E94BC0E86E0E3EEF3E0DF011D928A95EB
:1021D000E9F763C0351312C0241310C0E1100EC01C
:1021E000F8018583C8010E94BC0EE3EEF3E086E0AF
:1021F000DF011D928A95E9F7FB2C37CF4D875E876B
:102200008D859E850E94FC0E882359F2EE2049F2AE
:102210008091E803803208F4B5CF2091E303309138
:10222000E4033A8329831B82DD82CC828E83CE0134
:102230000196A6CFC816D90698F1F601E81BF90B4E
:10224000CF01F12C883C910508F049C0FE2CEE200E
:1022500009F4A7CF351332C0241330C08091E803AE
:1022600080FD23C0982F907F01F1D80115968C93A3
:102270001597903F39F0982F907F905F8F70892B42
:1022800015968C93C8010E94BC0E86E0F801A3EE5F
:10229000B3E001900D928A95E1F70E945D0FE5CEC3
:1022A000809590958C0D9D1DCCCF86E0F801A3EE16
:1022B000B3E001900D928A95E1F7D7CE4D875E8706
:1022C0008D859E850E94FC0E81115CCF8091E80374
:1022D00081608093E803C8010E94BC0EC6CE7C2DAD
:1022E000D98AC88A6E2D89890E941D0F6BCFEE2076
:1022F00009F457CF4D875E878D859E850E94FC0E21
:10230000F82E882309F44DCF86E0F801A3EEB3E060
:1023100001900D928A95E1F783EE93E00E94370BCE
:102320000E946B0FBACF81E08E25BDCE1F93CF9355
:10233000DF93CDB7DEB72C970FB6F894DEBF0FBE94
:10234000CDBF4F83588769877A878B879C87CE015B
:1023500007960E94CF0F882369F08A859B85892B79
:1023600039F04F815885842F85238F3F09F071C044
:1023700016E05FC086E0FE013796DE0111960190FF
:102380000D928A95E1F78A859B85892B89F388854B
:102390009F8189238F3F61F32091B20330E0C9010F
:1023A0000196877099274091B1034817190671F477
:1023B0000E94F80E1092B2031092B10386E0E3EE91
:1023C000F3E0DF011D928A95E9F7D2CF96E0929F64
:1023D000D001939FB00D1124AD54BC4FFE01319636
:1023E00001900D929A95E1F78093B2030E943C0F01
:1023F000BFCF819FC00111248D549C4F0E94CF0FED
:102400008823E9F0E091B1031E9FF0011124ED54FF
:10241000FC4F4081518162817381848195810E944A
:102420002C0F8091B10390E00196877099278093DB
:10243000B1038091B1039091B2038913DACF2C9646
:102440000FB6F894DEBF0FBECDBFDF91CF911F91C5
:10245000089569857A858B859C850E942C0F88CF8D
:10246000EF92FF920F931F93CF93DF938C01892BF1
:1024700081F0F12CEE24E394E8012196F801849197
:10248000843770F4843008F05FC08130B1F082305E
:10249000A1F1DF91CF911F910F91FF90EF900895DF
:1024A000853709F44CC008F43DC09CE7980F90377D
:1024B00080F78F770E943F0C49C00E5F1F4FFE01CF
:1024C000849190E2980F983060F48770FE2D01C0DF
:1024D000FF0F8A95EAF78F2F0E9417150E94BE14EE
:1024E00002C00E943C0B8F2D815030F2EFE9FFE0DB
:1024F0003197F1F700C00000F7CF0E5F1F4FFE01CC
:10250000849190E2980F983050F48770FE2D01C0AE
:10251000FF0F8A95EAF78F2F0E941D15DFCF0E94CB
:102520003F0CE1CF0E5F1F4FFE01C491C150D8F2A6
:102530008FE99FE00197F1F700C00000F7CF0E5F31
:102540001F4FFE01F490CFCF0E943C0B8E01CBCFEA
:1025500008950C94A8120E94A91260931F0470930E
:10256000200480932104909322040C94E60E089595
:102570000C94AB120F931F9300911F041091200431
:102580002091210430912204602B712B822B932BFC
:102590001F910F910C94AB120F931F9300911F0486
:1025A0001091200420912104309122046023712392
:1025B000822393231F910F910C94AB120F931F93BF
:1025C00000911F04109120042091210430912204D5
:1025D00060277127822793271F910F910C94AB12CC
:1025E0000C94A8120C94F0120E94F21260931B0437
:1025F00070931C0480931D0490931E040C94E60EAB
:1026000060E070E0CB010C94F4120F931F9341E053
:1026100050E060E070E08A019B0104C0000F111FD0
:10262000221F331F8A95D2F7C901B8011F910F915C
:102630000C94F4120F931F9341E050E060E070E0BF
:1026400004C0440F551F661F771F8A95D2F78091EB
:102650001B0490911C04A0911D04B0911E048A01DA
:102660009B01082B192B2A2B3B2BC901B8011F9169
:102670000F910C94F4120F931F9341E050E060E02F
:1026800070E004C0440F551F661F771F8A95D2F76C
:10269000CB01BA01609570958095909500911B04CF
:1026A00010911C0420911D0430911E04602371239D
:1026B000822393231F910F910C94F4120F931F9375
:1026C00041E050E060E070E004C0440F551F661F19
:1026D000771F8A95D2F780911B0490911C04A091DA
:1026E0001D04B0911E048A019B01082719272A277F
:1026F0003B27C901B8011F910F910C94F4120F935D
:102700001F9300911B0410911C0420911D04309113
:102710001E04602B712B822B932B1F910F910C9415
:10272000F4120F931F9300911B0410911C0420912D
:102730001D0430911E0460237123822393231F9173
:102740000F910C94F4120F931F9300911B0410919E
:102750001C0420911D0430911E04602771278227DC
:1027600093271F910F910C94F41208952FE0929FDC
:10277000800D1124982F977041E001C0440F9A9565
:10278000EAF786958695869595E0899FF001112454
:10279000E751FC4F90E080E070E05191DF0111972C
:1027A0009B01082E02C0369527950A94E2F7217006
:1027B00021952527242325272C93019685309105E3
:1027C00061F708952FE0929F800D1124982F977044
:1027D00086958695869525E0829FF0011124E75124
:1027E000FC4F50E040E080E0219130E0092E02C033
:1027F000369527950A94E2F721703327042E01C0FD
:10280000220F0A94EAF7822B4F5F5F4F4530510544
:1028100059F70895BF92CF92DF92EF92FF920F93F4
:102820001F93CF93DF938C01C0901B04D0901C04A6
:10283000E0901D04F0901E0480911F0490912004EC
:10284000A0912104B0912204C82AD92AEA2AFB2A9D
:10285000CFE1D0E0BC2ED701C6010C2E04C0B69546
:10286000A795979587950A94D2F780FD0EC021977A
:1028700088F7B12C8B2DDF91CF911F910F91FF9095
:10288000EF90DF90CF90BF900895B8018C2F0E94F9
:102890007104019761F3EECFCF93DF93EC010E94B7
:1028A0000A14BE01DF91CF910C9471041F93CF9352
:1028B000DF93EB019091B003992331F0CB01DF91CD
:1028C000CF911F910C944C14882379F0CB010E9476
:1028D0000A14182F682FCE010E94B613BE01812F53
:1028E000DF91CF911F910C947104CB010E94E213F0
:1028F000182FF4CF682F80910001909101010C9462
:10290000FF15682F80910001909101010C940A1627
:1029100080910001909101010C941516809123047F
:1029200085958595859508958091230487700895F0
:1029300098E0899F90011124622B609323040C94EA
:102940001A13909123048095892380932304282FC0
:10295000277061F4282F082E000C330B92171306F2
:1029600029F08595859585950C943B130895909154
:102970002304977081E009F480E00895E09100015C
:10298000F0910101809147048083E0910001F09172
:102990000101808190914604892B8083E0910001A0
:1029A000F0910101808190914504892B8083909161
:1029B0002404992381F0E0910001F09101018081CC
:1029C000892B808380910001909101010E949B15C9
:1029D00081111092240480910001909101010C94C6
:1029E000F60980914704089590914704892B8093BC
:1029F0004704089580959091470498239093470445
:102A00000895809347040895109247040895909183
:102A10004604892B8093460408958095909146043E
:102A20009823909346040895109246040895909137
:102A30004504892B80934504089580959091450421
:102A40009823909345040895109245040895809327
:102A50002404089510922404089580912404089574
:102A60006FEF7FEF90E080E00C945A1E90E080E0E2
:102A70000E94361E21E08D3E9E4F09F020E0822FFD
:102A8000089582E090E00C942E1E83E090E00C9478
:102A90002E1E84E090E00C942E1E682F84E090E0BF
:102AA0000C943C1EAB01BC018FE090E00C944E1ED8
:102AB00060E070E0CB010E9452150C946E026DEE46
:102AC0007EEF90E080E00E945A1E60E082E090E09D
:102AD0000E943C1E60E083E090E00E943C1E109249
:102AE0001F0410922004109221041092220460E02E
:102AF00084E090E00E943C1E60E085E090E00E944F
:102B00003C1E60E086E090E00E943C1E6FEF87E094
:102B100090E00E943C1E40E050E0BA0188E090E066
:102B20000E944E1E60E08DE090E00E943C1E0C94DE
:102B300058150C945F15FC01329680910C01882386
:102B400021F08091B7049EE187FF96E080E09150EC
:102B500008F4089521912223D1F38F5FF8CF9C01CF
:102B6000FC0132969FEF80E04191461751F09F3F64
:102B700019F4411101C0982F8F5F8630A9F79F3F4C
:102B800009F40895290F311D97FD3A95F9016283E3
:102B90000895FC01329608962191261303C0DF01A7
:102BA00011971C92E817F907B9F70895E62FE695F3
:102BB000E695E695EE3168F4E80FF92FF11D6770A0
:102BC00021E030E001C0220F6A95EAF78281822B72
:102BD00082830895E62FE695E695E695EE3170F44A
:102BE000E80FF92FF11D677021E030E001C0220FDE
:102BF0006A95EAF7209582812823228308952091FF
:102C00000C01222329F02091B70427FD0C94D6153E
:102C10000C94AF1520910C01222329F02091B704C8
:102C200027FD0C94EA150C94C915FC01329680918D
:102C30000C01882351F08091B70487FF06C08EE114
:102C4000DF011D928A95E9F7089586E0F9CF08958E
:102C500008950C9428160E9429168091BD04843092
:102C600049F11092490488E190E020E40FB6F8940D
:102C7000A895809360000FBE2093600080E00E94C2
:102C80009A020E94291683B7817F846083BF83B72D
:102C9000816083BF7894889583B78E7F83BF0FB69A
:102CA000F894A895809160008861809360001092EC
:102CB00060000FBE08950895CF930E9427160E94CA
:102CC00022070E945B16C0E08C2F0E94EE07892B22
:102CD00031F4CF5FC530C1F780E0CF91089581E036
:102CE000FCCF08950C9471160E94F80E0E94EA0918
:102CF0000E949A020C9472161F921FB61F92112402
:102D00008F939F93AF93BF9380914904811113C018
:102D10008091B3049091B404A091B504B091B6042D
:102D20004196A11DB11D8093B3049093B404A09368
:102D3000B504B093B604BF91AF919F918F911F904E
:102D40001FBE1F90189582E084BD93E095BD9AEF59
:102D500097BD80936E0008952FB7F8948091B304C7
:102D60009091B404A091B504B091B6042FBF08951A
:102D7000CF92DF92EF92FF920F931F932FB7F894A9
:102D80004091B3045091B4046091B5047091B604BD
:102D90002FBF6A017B01EE24FF248C0130E020E08C
:102DA000C016D106E206F30650F0481B590BCA01C3
:102DB0001F910F91FF90EF90DF90CF9008954150B9
:102DC0005109F3CF78941F921FB61F9211248F934D
:102DD0009F93AF93BF938091B3049091B404A0915B
:102DE000B504B091B6040196A11DB11D8093B30442
:102DF0009093B404A093B504B093B604BF91AF917F
:102E00009F918F911F901FBE1F90189581E0809316
:102E1000E00080E28093D8001092C9008FE19EE428
:102E20000197F1F700C0000087E090EBDC01809390
:102E3000C6049093C704A093C804B093C90488E162
:102E40009CE00FB6F894A895809360000FBE909315
:102E50006000FFCF0E943615811102C00E949915B3
:102E60000E944115809348040E94491590E0909378
:102E7000B8048093B7040E944515682F70E090E075
:102E800080E00C94B81280916A04089508950F931D
:102E90001F93CF93DF9300D00F92CDB7DEB78C0195
:102EA0000E948419823011F0843021F584E08983F6
:102EB0001B830A8382E08093E9008FEF9091E80002
:102EC000815095FD06C095ED9A95F1F700008111AE
:102ED000F5CF8091E80085FF0DC050E040E063E051
:102EE00070E0CE0101960E94A1198091E8008E77D2
:102EF0008093E8000F900F900F90DF91CF911F917A
:102F00000F910895CF93DF9300D00F92CDB7DEB726
:102F10002091BD04243031F523E0298380589109A4
:102F20009B838A8382E08093E9008FEF9091E80091
:102F3000815095FD06C095ED9A95F1F7000081113D
:102F4000F5CF8091E80085FF0DC050E040E063E0E0
:102F500070E0CE0101960E94A1198091E8008E7761
:102F60008093E8000F900F900F90DF91CF9108951C
:102F7000CF93DF93EC010E948419823011F08430EA
:102F8000B9F580910C018823B1F18091B70487FFD6
:102F900032C060E282E08093E9008FEF9091E80018
:102FA000815095FD06C095ED9A95F1F700008111CD
:102FB000F5CF8091E80085FF1BC080910C0170E087
:102FC00050E040E0811104C050E040E068E070E073
:102FD000CE010E94A1198091E8008E778093E800CD
:102FE00080E2FE01AAE4B4E001900D928A95E1F737
:102FF000DF91CF91089568E081E0CDCF8091BC044E
:10300000811109C00E942F1B0E948C1B8091E2003D
:1030100084608093E20008951092BC04089508959E
:1030200008950C94741642E061EC81E00E94AD1AA0
:1030300042E261EC82E00C94AD1A8091BF048330CF
:1030400009F463C030F48130E1F1823009F49FC0AB
:1030500008958A3009F48BC08B3009F471C089302F
:1030600009F052C08091BE04813209F04DC08091B8
:10307000C2049091C304029708F046C08091E80012
:10308000877F8093E8008091E80082FF39C09091AB
:10309000F3008091F200029749F480910C0188239B
:1030A00029F08091F1008B7F813021F48091F10033
:1030B00080936A048091E8008B778093E8000C94F9
:1030C000E11A8091BE04813AF9F48091E800877F8B
:1030D0008093E8008091C2049091C304892B61F42D
:1030E00060E28AE494E070E00E94F0198091E800C8
:1030F0008B778093E800089560E090E080E0F3CF64
:103100008091BD048111BFCF08958091BE04813AA2
:10311000D9F78091C2049091C304892BA9F78091BB
:10312000E800877F8093E8008091E80080FFFCCF73
:1031300080910C018093F1008091E8008E77BDCFE3
:103140008091BE04813201F78091C2049091C30442
:10315000892BD1F68091E800877F8093E8000E9458
:10316000E11A8091C00480930C010C94F80E8091B8
:10317000BE04813249F68091E800877F8093E800A1
:103180000E94E11A8091C10480936B04089580919C
:10319000BE04813A09F0B8CF8091E800877F809320
:1031A000E8008091E80080FFFCCF80916B04C2CFE3
:1031B00084B7877F84BF0FB6F894A895809160008C
:1031C000886180936000109260000FBE80E8809359
:1031D0006100109261000E94440A0E942F1B0E940D
:1031E0008C1B8091E20084608093E20078940E94BE
:1031F0000C1E0E944A0A82E091E00E94E50980913B
:10320000BD04853019F00E94500AF9CF0E942B1698
:103210008091BB04882399F30E945C16882379F37C
:103220000E948B19ECCF0C941519292F33272330CA
:10323000310519F168F42130310509F44AC0223012
:10324000310509F44BC090E080E030E020E028C078
:103250002132310579F122323105A9F780E490E07D
:103260002AEE33E061157105D9F081E790E029E796
:1032700033E061307105A1F0E6CF992781309105E7
:1032800099F0009741F08230910589F00397D9F6C3
:10329000E4E0F3E002C0E8E2F3E0849190E09F0113
:1032A000FA01318320830895E6E1F3E0F6CFEAE006
:1032B000F3E0F3CF89E090E02EE333E06115710590
:1032C00079F389E090E027E533E06130710541F35F
:1032D000BACF82E190E027E633E0E2CF8BE390E0E3
:1032E0002CE233E0DDCF0895CF93C82F0E947319ED
:1032F000C0936C04CF9108958091BD04843011F483
:1033000082E0089581E0089580916C04811102C0EB
:103310000C947C19089580E189BD82E189BD09B4CE
:1033200000FEFDCF8091D8008F7D8093D8008091E2
:10333000E00082608093E0008091E00081FDFCCF9E
:103340000895AF92BF92CF92DF92FF920F931F9397
:10335000CF93DF936C01EB018A010E94001BF82ED2
:10336000811123C00115110539F0F8018081918187
:10337000C81BD90BC80ED91EB12CA12C2097A9F0BF
:103380008091E80085FD22C08091E8008E778093CF
:10339000E80001151105A1F0F80180819181A80EC6
:1033A000B91EB182A08285E0F82E8F2DDF91CF91DA
:1033B0001F910F91FF90DF90CF90BF90AF90089535
:1033C0000E94001B8823D1F2F82EEFCFF6018191E5
:1033D0006F018093F1002197FFEFAF1ABF0ACECFA4
:1033E000FC018091C4049091C50486179707A0F052
:1033F0006115710529F49091E8009E779093E8009B
:1034000090E06115710551F4911108C08091E800B8
:1034100082FF34C080E00895BC01F2CF8091BD04EA
:103420008823C1F18530C1F18091E80083FD30C06F
:103430008091E80082FDEACF8091E80080FFE1CF33
:103440008091F3002091F200382F6115710519F079
:103450002830310558F091E02830310509F090E02E
:103460002091E8002E772093E800CBCF81918093C4
:10347000F100615071092F5F3F4FE7CF8091BD048C
:10348000882341F0853041F08091E80083FFBECF72
:1034900081E0089582E0089583E00895FC01809121
:1034A000C4049091C50486179707A0F061157105B3
:1034B00029F48091E8008E778093E80090E0611510
:1034C000710551F4911108C08091E80082FF35C068
:1034D00080E00895BC01F2CF8091BD048823C9F13A
:1034E0008530C9F18091E80083FD31C08091E8000A
:1034F00082FDEACF8091E80080FFE1CF8091F30068
:103500002091F200382F6115710519F0283031052E
:1035100058F091E02830310509F090E08091E80002
:103520008E778093E800CBCF84918093F100319621
:10353000615071092F5F3F4FE6CF8091BD04882312
:1035400041F0853041F08091E80083FFBDCF81E0FC
:10355000089582E0089583E00895982F973028F029
:103560008F708093E90081E008959093E900242F03
:10357000762F50E0981731F07091EC002091ED001B
:103580005091F00021FD02C09F5FE8CF3091EB0029
:103590003E7F3093EB003091ED003D7F3093ED00A6
:1035A0003091EB0031603093EB007093EC0020938E
:1035B000ED005093F0002091EE0027FDE5CF80E074
:1035C00008958091BE0487FF13C08091E80082FFB8
:1035D00006C08091E8008B778093E80004C080915A
:1035E000BD048111F2CF08958091BD048823D9F3E1
:1035F0008091E80080FFF8CF8091E8008E77ECCFD3
:103600002091E4003091E50085E6A9019091EC005D
:1036100090FF06C09091E80090FF06C080E00895FA
:103620009091E80092FDFACF9091BD04992389F022
:10363000953089F09091EB0095FD0FC02091E4004A
:103640003091E5004217530709F38150F1F684E009
:10365000089582E0089583E0089581E008950E942E
:103660009D1B0E94A51BE0EEF0E0808181608083BD
:10367000E8EDF0E080818F77808319BCA7EDB0E0A2
:103680008C918E7F8C9380818F7E80831092BC047E
:1036900008950F931F93CF93DF930E949D1B0E9469
:1036A000A51BC8EDD0E088818F77888388818068EA
:1036B000888388818F7D888319BC1092BD04109205
:1036C000B9041092BB041092BA0400EE10E0F801A5
:1036D00080818B7F808388818160888342E060E085
:1036E00080E00E94AD1AE1EEF0E080818E7F808361
:1036F000E2EEF0E080818160808380818860808359
:10370000F80180818E7F8083888180618883DF914A
:10371000CF911F910F910895E8EDF0E080818F7EA9
:103720008083E7EDF0E080818160808384E082BF68
:1037300081E08093BC040C94491BE8EDF0E08081AB
:103740008E7F80831092E20008951092DA0010922A
:10375000E10008951F920F920FB60F9211242F933C
:103760003F934F935F936F937F938F939F93AF9309
:10377000BF93EF93FF938091E10082FF0BC0809194
:10378000E20082FF07C08091E1008B7F8093E1001F
:103790000E940B1E8091DA0080FF19C08091D80032
:1037A00080FF15C08091DA008E7F8093DA008091CF
:1037B000D90080FF94C080E189BD82E189BD09B450
:1037C00000FEFDCF81E08093BD040E94FE17809132
:1037D000E10080FF19C08091E20080FF15C0809158
:1037E000E2008E7F8093E2008091E200806180930E
:1037F000E2008091D80080628093D80019BC85E0F7
:103800008093BD040E9410188091E10084FF29C0BC
:103810008091E20084FF25C080E189BD82E189BDFD
:1038200009B400FEFDCF8091D8008F7D8093D80031
:103830008091E1008F7E8093E1008091E2008F7E95
:103840008093E2008091E20081608093E2008091A9
:10385000B904882309F449C084E08093BD040E9420
:1038600011188091E10083FF29C08091E20083FF5D
:1038700025C08091E100877F8093E10082E0809302
:10388000BD041092B9048091E1008E7F8093E10025
:103890008091E2008E7F8093E2008091E20080615F
:1038A0008093E20042E060E080E00E94AD1A8091E7
:1038B000F00088608093F0000E940F18FF91EF9154
:1038C000BF91AF919F918F917F916F915F914F9138
:1038D0003F912F910F900FBE0F901F90189519BC1C
:1038E0001092BD040E940C1872CF8091E30087FDF6
:1038F00002C081E0B2CF83E0B0CF1F920F920FB62B
:103900000F9211242F933F934F935F936F937F9365
:103910008F939F93AF93BF93CF93EF93FF93C091F8
:10392000E900CF708091EC001092E9008091F000E6
:10393000877F8093F00078940E94B91C1092E90070
:103940008091F00088608093F000C093E900FF91BF
:10395000EF91CF91BF91AF919F918F917F916F9197
:103960005F914F913F912F910F900FBE0F901F903D
:1039700018951F93CF93DF93CDB7DEB7AA970FB6F5
:10398000F894DEBF0FBECDBF8EEB94E02091F10026
:10399000FC012193CF01F4E0863C9F07B9F70E9418
:1039A0001D188091E80083FF1EC18091BE04909194
:1039B000BF049A3008F017C1E92FF0E0E954F14E46
:1039C0000C94281E803899F0823809F00CC180913F
:1039D000C2048F70873008F006C18093E90080919F
:1039E000EB0085FB882780F91092E90006C08091E2
:1039F000BA049091BB04911182609091E800977F86
:103A00009093E8008093F1001092F1008091E8001B
:103A10008E77E5C0882309F4D3C0823009F0E3C073
:103A20008091C0048111D6C08091C2048F702FEFA5
:103A3000280F263008F0D7C08093E9002091EB00D2
:103A400020FFC8C0933031F48091EB0080628093F6
:103A5000EB00C0C09091EB0090619093EB0021E0EF
:103A600030E001C0220F8A95EAF72093EA00109215
:103A7000EA008091EB008860EACF8111B4C0109118
:103A8000C0041F778091E3008078812B8093E3004E
:103A90008091E800877F8093E8000E94E11A80917E
:103AA000E80080FFFCCF8091E30080688093E30012
:103AB00082E0111183E08093BD0495C0805882306C
:103AC00008F091C08091C0049091C1048C3D23E026
:103AD0009207A1F583E08A838AE289834FB7F8943D
:103AE000DE01139620E03EE051E2E32FF0E0509338
:103AF0005700E49120FF03C0E295EF703F5FEF7045
:103B00008E2F90E0EA30C0F0C7968D939D932F5F83
:103B1000243159F74FBF8091E800877F8093E800F8
:103B20006AE270E0CE0101960E94F0198091E800EF
:103B30008B778093E80057C0C096E7CF6091C204AE
:103B40007091C304AE014F5F5F4F0E941319BC0117
:103B5000892B09F448C09091E800977F9093E80082
:103B600089819A810E944E1AE1CF8038E1F58091D7
:103B7000E800877F8093E8008091B9048093F1008A
:103B800045CF811130C09091C004923060F5809192
:103B9000E800877F8093E8009093B9040E94E11ABF
:103BA0008091B904882311F084E005C08091E3007E
:103BB00087FDFACF81E08093BD040E94131813C0E3
:103BC0008091C004813079F481E0933009F080E085
:103BD0008093BB041092E9008091E800877F809376
:103BE000E8000E94E11A8091E80083FF0AC08091FA
:103BF000E800877F8093E8008091EB0080628093EB
:103C0000EB00AA960FB6F894DEBF0FBECDBFDF91D2
:103C1000CF911F9108950895CF938091BD0488237B
:103C200099F0C091E900CF708091EC0080FD0EC04A
:103C300080E0C82B1092E9008091E80083FD0E948B
:103C4000B91CCF70C093E900CF91089580E8F1CFFF
:103C5000EE0FFF1F0590F491E02D0994F999FECF26
:103C600092BD81BDF89A992780B50895A8E1B0E08A
:103C700042E050E00C94621E262FF999FECF92BDCF
:103C800081BDF89A019700B4021639F01FBA20BD21
:103C90000FB6F894FA9AF99A0FBE08950396272F53
:103CA0000E943D1E0E943C1E252F0E943D1E242F77
:103CB0000C943D1E0196272F0E943D1E0C943C1E25
:103CC000DC01CB01FC01F999FECF06C0F2BDE1BDDC
:103CD000F89A319600B40D9241505040B8F70895CB
:103CE000F894FFCFAA03B603BA03BE03C203C60308
:103CF000CA03CE03D203D603DA03DE03E203E603EC
:103D0000EA03EE03F203F603DA0CDA0C390D390D8F
:103D1000800D070D070D070D9C0D070D340E340E99
:103D20009F0E070D070DA80E3E0E3E0E3E0E3E0ED8
:103D30003E0E3E0E3E0E3E0E3E0E3E0E3E0E3E0E23
:103D40003E0E3E0E3E0E3E0E4B0E590E600E670EA0
:103D5000710E090F090F120F120F140F120F120F0D
:103D6000120F090F090F190F120F120F190FE21C72
:103D70000A1DF31D0A1DF31D3D1D5E1DF31DB51D1E
:023D8000C11D63
:103D820025044317B81746178217471701706F6F3C
:103D920070003078314634413900736869740068C4
:103DA200616E6B657900726F666C003078314639EE
:103DB200323300636F6F6C00307831463630450025
:103DC200766F6D6974003078314639324500766F0E
:103DD2006D697432003078314639323200736C6565
:103DE2006570003078314636324100736C6565701B
:103DF200320030783146363334003A2A0030783196
:103E020046363137003A2A32003078314636313878
:103E1200003A700030783146363144003C3300308D
:103E22007832373634006C6F7665006F6B0030780D
:103E32003146343443006F6B3200307831463434CB
:103E420044002B31006469736C696B6500746869A6
:103E52007300307831463434360074686174006619
:103E6200750030783146353935006465616400305B
:103E72007831463438300070756E636800307831BE
:103E820046343441006669737462756D7000636C08
:103E9200617000307831463434460070616E63617F
:103EA2006B6573003078314639354500636F66665D
:103EB20065650030783236313500626565720030F2
:103EC200783146333741006265657273003078316C
:103ED2004633374200636C696E6B00776869736BB7
:103EE200657900307831463934330074756D626C0F
:103EF200657200736869700030783146364132006D
:103F02007368697069740074726173680030783123
:103F120046354431006761726261676500666972A5
:103F220065003078314635323500666C616D696EF8
:103F32006700686F74746970000D0112011A011232
:103F4200011F01120126012B0133013801400146F4
:103F5200014E0155015D0163016B0172017A017D20
:103F62000185018901910194019C019F01A6019F94
:103F720001AB01AE01B601BA01C201BA01C801BA70
:103F820001C501BA01CD01D201DA01D201DF01E29C
:103F920001EA01EF01F701FD010502FD010E021325
:103FA200021B0224022C0233023A023F0247024D54
:103FB2000255024D025B0263026B026302730278D6
:103FC200028002780287028D0295028D029D02A272
:103FD20002AA02A202B202A20200000000F0F1C68E
:103FE2006766379431303534979633F490919293D3
:023FF200950038
:0200000400807A
:0404C6000000000032
:00000001FF
